{
  "_format": "hh-sol-artifact-1",
  "contractName": "MintPass",
  "sourceName": "contracts/MintPass.sol",
  "abi": [
    {
      "inputs": [],
      "stateMutability": "nonpayable",
      "type": "constructor"
    },
    {
      "anonymous": false,
      "inputs": [
        {
          "indexed": true,
          "internalType": "address",
          "name": "account",
          "type": "address"
        },
        {
          "indexed": true,
          "internalType": "address",
          "name": "operator",
          "type": "address"
        },
        {
          "indexed": false,
          "internalType": "bool",
          "name": "approved",
          "type": "bool"
        }
      ],
      "name": "ApprovalForAll",
      "type": "event"
    },
    {
      "anonymous": false,
      "inputs": [
        {
          "indexed": true,
          "internalType": "address",
          "name": "previousOwner",
          "type": "address"
        },
        {
          "indexed": true,
          "internalType": "address",
          "name": "newOwner",
          "type": "address"
        }
      ],
      "name": "OwnershipTransferred",
      "type": "event"
    },
    {
      "anonymous": false,
      "inputs": [
        {
          "indexed": true,
          "internalType": "address",
          "name": "operator",
          "type": "address"
        },
        {
          "indexed": true,
          "internalType": "address",
          "name": "from",
          "type": "address"
        },
        {
          "indexed": true,
          "internalType": "address",
          "name": "to",
          "type": "address"
        },
        {
          "indexed": false,
          "internalType": "uint256[]",
          "name": "ids",
          "type": "uint256[]"
        },
        {
          "indexed": false,
          "internalType": "uint256[]",
          "name": "values",
          "type": "uint256[]"
        }
      ],
      "name": "TransferBatch",
      "type": "event"
    },
    {
      "anonymous": false,
      "inputs": [
        {
          "indexed": true,
          "internalType": "address",
          "name": "operator",
          "type": "address"
        },
        {
          "indexed": true,
          "internalType": "address",
          "name": "from",
          "type": "address"
        },
        {
          "indexed": true,
          "internalType": "address",
          "name": "to",
          "type": "address"
        },
        {
          "indexed": false,
          "internalType": "uint256",
          "name": "id",
          "type": "uint256"
        },
        {
          "indexed": false,
          "internalType": "uint256",
          "name": "value",
          "type": "uint256"
        }
      ],
      "name": "TransferSingle",
      "type": "event"
    },
    {
      "anonymous": false,
      "inputs": [
        {
          "indexed": false,
          "internalType": "string",
          "name": "value",
          "type": "string"
        },
        {
          "indexed": true,
          "internalType": "uint256",
          "name": "id",
          "type": "uint256"
        }
      ],
      "name": "URI",
      "type": "event"
    },
    {
      "inputs": [],
      "name": "MAXIMUM_SUPPLY",
      "outputs": [
        {
          "internalType": "uint256",
          "name": "",
          "type": "uint256"
        }
      ],
      "stateMutability": "view",
      "type": "function"
    },
    {
      "inputs": [],
      "name": "MINT_PASS",
      "outputs": [
        {
          "internalType": "uint256",
          "name": "",
          "type": "uint256"
        }
      ],
      "stateMutability": "view",
      "type": "function"
    },
    {
      "inputs": [
        {
          "internalType": "address",
          "name": "account",
          "type": "address"
        },
        {
          "internalType": "uint256",
          "name": "id",
          "type": "uint256"
        }
      ],
      "name": "balanceOf",
      "outputs": [
        {
          "internalType": "uint256",
          "name": "",
          "type": "uint256"
        }
      ],
      "stateMutability": "view",
      "type": "function"
    },
    {
      "inputs": [
        {
          "internalType": "address[]",
          "name": "accounts",
          "type": "address[]"
        },
        {
          "internalType": "uint256[]",
          "name": "ids",
          "type": "uint256[]"
        }
      ],
      "name": "balanceOfBatch",
      "outputs": [
        {
          "internalType": "uint256[]",
          "name": "",
          "type": "uint256[]"
        }
      ],
      "stateMutability": "view",
      "type": "function"
    },
    {
      "inputs": [],
      "name": "currentMintingFee",
      "outputs": [
        {
          "internalType": "uint256",
          "name": "",
          "type": "uint256"
        }
      ],
      "stateMutability": "view",
      "type": "function"
    },
    {
      "inputs": [
        {
          "internalType": "uint256",
          "name": "id",
          "type": "uint256"
        }
      ],
      "name": "exists",
      "outputs": [
        {
          "internalType": "bool",
          "name": "",
          "type": "bool"
        }
      ],
      "stateMutability": "view",
      "type": "function"
    },
    {
      "inputs": [
        {
          "internalType": "address",
          "name": "account",
          "type": "address"
        },
        {
          "internalType": "address",
          "name": "operator",
          "type": "address"
        }
      ],
      "name": "isApprovedForAll",
      "outputs": [
        {
          "internalType": "bool",
          "name": "",
          "type": "bool"
        }
      ],
      "stateMutability": "view",
      "type": "function"
    },
    {
      "inputs": [],
      "name": "maxMintingPerTx",
      "outputs": [
        {
          "internalType": "uint256",
          "name": "",
          "type": "uint256"
        }
      ],
      "stateMutability": "view",
      "type": "function"
    },
    {
      "inputs": [
        {
          "internalType": "uint256",
          "name": "amount",
          "type": "uint256"
        }
      ],
      "name": "mint",
      "outputs": [],
      "stateMutability": "payable",
      "type": "function"
    },
    {
      "inputs": [],
      "name": "owner",
      "outputs": [
        {
          "internalType": "address",
          "name": "",
          "type": "address"
        }
      ],
      "stateMutability": "view",
      "type": "function"
    },
    {
      "inputs": [],
      "name": "renounceOwnership",
      "outputs": [],
      "stateMutability": "nonpayable",
      "type": "function"
    },
    {
      "inputs": [
        {
          "internalType": "address",
          "name": "from",
          "type": "address"
        },
        {
          "internalType": "address",
          "name": "to",
          "type": "address"
        },
        {
          "internalType": "uint256[]",
          "name": "ids",
          "type": "uint256[]"
        },
        {
          "internalType": "uint256[]",
          "name": "amounts",
          "type": "uint256[]"
        },
        {
          "internalType": "bytes",
          "name": "data",
          "type": "bytes"
        }
      ],
      "name": "safeBatchTransferFrom",
      "outputs": [],
      "stateMutability": "nonpayable",
      "type": "function"
    },
    {
      "inputs": [
        {
          "internalType": "address",
          "name": "from",
          "type": "address"
        },
        {
          "internalType": "address",
          "name": "to",
          "type": "address"
        },
        {
          "internalType": "uint256",
          "name": "id",
          "type": "uint256"
        },
        {
          "internalType": "uint256",
          "name": "amount",
          "type": "uint256"
        },
        {
          "internalType": "bytes",
          "name": "data",
          "type": "bytes"
        }
      ],
      "name": "safeTransferFrom",
      "outputs": [],
      "stateMutability": "nonpayable",
      "type": "function"
    },
    {
      "inputs": [
        {
          "internalType": "address",
          "name": "operator",
          "type": "address"
        },
        {
          "internalType": "bool",
          "name": "approved",
          "type": "bool"
        }
      ],
      "name": "setApprovalForAll",
      "outputs": [],
      "stateMutability": "nonpayable",
      "type": "function"
    },
    {
      "inputs": [
        {
          "internalType": "uint256",
          "name": "_maxMintingPerTx",
          "type": "uint256"
        }
      ],
      "name": "setMaxMintingPerTx",
      "outputs": [],
      "stateMutability": "nonpayable",
      "type": "function"
    },
    {
      "inputs": [
        {
          "internalType": "uint256",
          "name": "weiAmount",
          "type": "uint256"
        }
      ],
      "name": "setMintingFee",
      "outputs": [],
      "stateMutability": "nonpayable",
      "type": "function"
    },
    {
      "inputs": [
        {
          "internalType": "bytes4",
          "name": "interfaceId",
          "type": "bytes4"
        }
      ],
      "name": "supportsInterface",
      "outputs": [
        {
          "internalType": "bool",
          "name": "",
          "type": "bool"
        }
      ],
      "stateMutability": "view",
      "type": "function"
    },
    {
      "inputs": [
        {
          "internalType": "uint256",
          "name": "id",
          "type": "uint256"
        }
      ],
      "name": "totalSupply",
      "outputs": [
        {
          "internalType": "uint256",
          "name": "",
          "type": "uint256"
        }
      ],
      "stateMutability": "view",
      "type": "function"
    },
    {
      "inputs": [
        {
          "internalType": "address",
          "name": "newOwner",
          "type": "address"
        }
      ],
      "name": "transferOwnership",
      "outputs": [],
      "stateMutability": "nonpayable",
      "type": "function"
    },
    {
      "inputs": [
        {
          "internalType": "uint256",
          "name": "",
          "type": "uint256"
        }
      ],
      "name": "uri",
      "outputs": [
        {
          "internalType": "string",
          "name": "",
          "type": "string"
        }
      ],
      "stateMutability": "view",
      "type": "function"
    },
    {
      "inputs": [],
      "name": "withdrawETH",
      "outputs": [],
      "stateMutability": "nonpayable",
      "type": "function"
    }
  ],
  "bytecode": "0x6080604052600260055567011c37937e0800006006553480156200002257600080fd5b506040518060600160405280603581526020016200395d603591396200004e816200007560201b60201c565b506200006f620000636200009160201b60201c565b6200009960201b60201c565b62000274565b80600290805190602001906200008d9291906200015f565b5050565b600033905090565b6000600460009054906101000a900473ffffffffffffffffffffffffffffffffffffffff16905081600460006101000a81548173ffffffffffffffffffffffffffffffffffffffff021916908373ffffffffffffffffffffffffffffffffffffffff1602179055508173ffffffffffffffffffffffffffffffffffffffff168173ffffffffffffffffffffffffffffffffffffffff167f8be0079c531659141344cd1fd0a4f28419497f9722a3daafe3b4186f6b6457e060405160405180910390a35050565b8280546200016d906200020f565b90600052602060002090601f016020900481019282620001915760008555620001dd565b82601f10620001ac57805160ff1916838001178555620001dd565b82800160010185558215620001dd579182015b82811115620001dc578251825591602001919060010190620001bf565b5b509050620001ec9190620001f0565b5090565b5b808211156200020b576000816000905550600101620001f1565b5090565b600060028204905060018216806200022857607f821691505b602082108114156200023f576200023e62000245565b5b50919050565b7f4e487b7100000000000000000000000000000000000000000000000000000000600052602260045260246000fd5b6136d980620002846000396000f3fe6080604052600436106101295760003560e01c8063715018a6116100ab578063e086e5ec1161006f578063e086e5ec146103f6578063e48655cb1461040d578063e985e9c514610436578063f242432a14610473578063f2fde38b1461049c578063f8a3b893146104c557610129565b8063715018a6146103325780638da5cb5b14610349578063a0712d6814610374578063a22cb46514610390578063bd85b039146103b957610129565b80633d0c4924116100f25780633d0c4924146102375780634e1273f4146102625780634f558e791461029f57806355dc523f146102dc57806367a5502c1461030757610129565b8062fdd58e1461012e57806301ffc9a71461016b5780630e89341c146101a8578063238a4709146101e55780632eb2c2d61461020e575b600080fd5b34801561013a57600080fd5b50610155600480360381019061015091906124b3565b6104f0565b6040516101629190612cd5565b60405180910390f35b34801561017757600080fd5b50610192600480360381019061018d919061255b565b6105b9565b60405161019f9190612a98565b60405180910390f35b3480156101b457600080fd5b506101cf60048036038101906101ca91906125ad565b61069b565b6040516101dc9190612ab3565b60405180910390f35b3480156101f157600080fd5b5061020c600480360381019061020791906125ad565b61072f565b005b34801561021a57600080fd5b5061023560048036038101906102309190612329565b6107b5565b005b34801561024357600080fd5b5061024c610856565b6040516102599190612cd5565b60405180910390f35b34801561026e57600080fd5b50610289600480360381019061028491906124ef565b61085b565b6040516102969190612a3f565b60405180910390f35b3480156102ab57600080fd5b506102c660048036038101906102c191906125ad565b610a0c565b6040516102d39190612a98565b60405180910390f35b3480156102e857600080fd5b506102f1610a20565b6040516102fe9190612cd5565b60405180910390f35b34801561031357600080fd5b5061031c610a26565b6040516103299190612cd5565b60405180910390f35b34801561033e57600080fd5b50610347610a2c565b005b34801561035557600080fd5b5061035e610ab4565b60405161036b9190612962565b60405180910390f35b61038e600480360381019061038991906125ad565b610ade565b005b34801561039c57600080fd5b506103b760048036038101906103b29190612477565b610bea565b005b3480156103c557600080fd5b506103e060048036038101906103db91906125ad565b610c00565b6040516103ed9190612cd5565b60405180910390f35b34801561040257600080fd5b5061040b610c1d565b005b34801561041957600080fd5b50610434600480360381019061042f91906125ad565b610d0b565b005b34801561044257600080fd5b5061045d600480360381019061045891906122ed565b610d91565b60405161046a9190612a98565b60405180910390f35b34801561047f57600080fd5b5061049a600480360381019061049591906123e8565b610e25565b005b3480156104a857600080fd5b506104c360048036038101906104be91906122c4565b610ec6565b005b3480156104d157600080fd5b506104da610fbe565b6040516104e79190612cd5565b60405180910390f35b60008073ffffffffffffffffffffffffffffffffffffffff168373ffffffffffffffffffffffffffffffffffffffff161415610561576040517f08c379a000000000000000000000000000000000000000000000000000000000815260040161055890612b15565b60405180910390fd5b60008083815260200190815260200160002060008473ffffffffffffffffffffffffffffffffffffffff1673ffffffffffffffffffffffffffffffffffffffff16815260200190815260200160002054905092915050565b60007fd9b67a26000000000000000000000000000000000000000000000000000000007bffffffffffffffffffffffffffffffffffffffffffffffffffffffff1916827bffffffffffffffffffffffffffffffffffffffffffffffffffffffff1916148061068457507f0e89341c000000000000000000000000000000000000000000000000000000007bffffffffffffffffffffffffffffffffffffffffffffffffffffffff1916827bffffffffffffffffffffffffffffffffffffffffffffffffffffffff1916145b80610694575061069382610fc3565b5b9050919050565b6060600280546106aa90612fdd565b80601f01602080910402602001604051908101604052809291908181526020018280546106d690612fdd565b80156107235780601f106106f857610100808354040283529160200191610723565b820191906000526020600020905b81548152906001019060200180831161070657829003601f168201915b50505050509050919050565b61073761102d565b73ffffffffffffffffffffffffffffffffffffffff16610755610ab4565b73ffffffffffffffffffffffffffffffffffffffff16146107ab576040517f08c379a00000000000000000000000000000000000000000000000000000000081526004016107a290612c35565b60405180910390fd5b8060068190555050565b6107bd61102d565b73ffffffffffffffffffffffffffffffffffffffff168573ffffffffffffffffffffffffffffffffffffffff1614806108035750610802856107fd61102d565b610d91565b5b610842576040517f08c379a000000000000000000000000000000000000000000000000000000000815260040161083990612bd5565b60405180910390fd5b61084f8585858585611035565b5050505050565b60fa81565b606081518351146108a1576040517f08c379a000000000000000000000000000000000000000000000000000000000815260040161089890612c75565b60405180910390fd5b6000835167ffffffffffffffff8111156108e4577f4e487b7100000000000000000000000000000000000000000000000000000000600052604160045260246000fd5b6040519080825280602002602001820160405280156109125781602001602082028036833780820191505090505b50905060005b8451811015610a01576109ab85828151811061095d577f4e487b7100000000000000000000000000000000000000000000000000000000600052603260045260246000fd5b602002602001015185838151811061099e577f4e487b7100000000000000000000000000000000000000000000000000000000600052603260045260246000fd5b60200260200101516104f0565b8282815181106109e4577f4e487b7100000000000000000000000000000000000000000000000000000000600052603260045260246000fd5b602002602001018181525050806109fa90613040565b9050610918565b508091505092915050565b600080610a1883610c00565b119050919050565b60065481565b60055481565b610a3461102d565b73ffffffffffffffffffffffffffffffffffffffff16610a52610ab4565b73ffffffffffffffffffffffffffffffffffffffff1614610aa8576040517f08c379a0000000000000000000000000000000000000000000000000000000008152600401610a9f90612c35565b60405180910390fd5b610ab26000611395565b565b6000600460009054906101000a900473ffffffffffffffffffffffffffffffffffffffff16905090565b60065481610aec9190612e99565b341015610b2e576040517f08c379a0000000000000000000000000000000000000000000000000000000008152600401610b2590612c15565b60405180910390fd5b60fa81610b3b6000610c00565b610b459190612e43565b1115610b86576040517f08c379a0000000000000000000000000000000000000000000000000000000008152600401610b7d90612b75565b60405180910390fd5b600554811115610bcb576040517f08c379a0000000000000000000000000000000000000000000000000000000008152600401610bc290612b95565b60405180910390fd5b610be7336000836040518060200160405280600081525061145b565b50565b610bfc610bf561102d565b83836115f1565b5050565b600060036000838152602001908152602001600020549050919050565b610c2561102d565b73ffffffffffffffffffffffffffffffffffffffff16610c43610ab4565b73ffffffffffffffffffffffffffffffffffffffff1614610c99576040517f08c379a0000000000000000000000000000000000000000000000000000000008152600401610c9090612c35565b60405180910390fd5b610ca1610ab4565b73ffffffffffffffffffffffffffffffffffffffff1647604051610cc49061294d565b60006040518083038185875af1925050503d8060008114610d01576040519150601f19603f3d011682016040523d82523d6000602084013e610d06565b606091505b505050565b610d1361102d565b73ffffffffffffffffffffffffffffffffffffffff16610d31610ab4565b73ffffffffffffffffffffffffffffffffffffffff1614610d87576040517f08c379a0000000000000000000000000000000000000000000000000000000008152600401610d7e90612c35565b60405180910390fd5b8060058190555050565b6000600160008473ffffffffffffffffffffffffffffffffffffffff1673ffffffffffffffffffffffffffffffffffffffff16815260200190815260200160002060008373ffffffffffffffffffffffffffffffffffffffff1673ffffffffffffffffffffffffffffffffffffffff16815260200190815260200160002060009054906101000a900460ff16905092915050565b610e2d61102d565b73ffffffffffffffffffffffffffffffffffffffff168573ffffffffffffffffffffffffffffffffffffffff161480610e735750610e7285610e6d61102d565b610d91565b5b610eb2576040517f08c379a0000000000000000000000000000000000000000000000000000000008152600401610ea990612b55565b60405180910390fd5b610ebf858585858561175e565b5050505050565b610ece61102d565b73ffffffffffffffffffffffffffffffffffffffff16610eec610ab4565b73ffffffffffffffffffffffffffffffffffffffff1614610f42576040517f08c379a0000000000000000000000000000000000000000000000000000000008152600401610f3990612c35565b60405180910390fd5b600073ffffffffffffffffffffffffffffffffffffffff168173ffffffffffffffffffffffffffffffffffffffff161415610fb2576040517f08c379a0000000000000000000000000000000000000000000000000000000008152600401610fa990612b35565b60405180910390fd5b610fbb81611395565b50565b600081565b60007f01ffc9a7000000000000000000000000000000000000000000000000000000007bffffffffffffffffffffffffffffffffffffffffffffffffffffffff1916827bffffffffffffffffffffffffffffffffffffffffffffffffffffffff1916149050919050565b600033905090565b8151835114611079576040517f08c379a000000000000000000000000000000000000000000000000000000000815260040161107090612c95565b60405180910390fd5b600073ffffffffffffffffffffffffffffffffffffffff168473ffffffffffffffffffffffffffffffffffffffff1614156110e9576040517f08c379a00000000000000000000000000000000000000000000000000000000081526004016110e090612bb5565b60405180910390fd5b60006110f361102d565b90506111038187878787876119e0565b60005b845181101561130057600085828151811061114a577f4e487b7100000000000000000000000000000000000000000000000000000000600052603260045260246000fd5b60200260200101519050600085838151811061118f577f4e487b7100000000000000000000000000000000000000000000000000000000600052603260045260246000fd5b60200260200101519050600080600084815260200190815260200160002060008b73ffffffffffffffffffffffffffffffffffffffff1673ffffffffffffffffffffffffffffffffffffffff16815260200190815260200160002054905081811015611230576040517f08c379a000000000000000000000000000000000000000000000000000000000815260040161122790612bf5565b60405180910390fd5b81810360008085815260200190815260200160002060008c73ffffffffffffffffffffffffffffffffffffffff1673ffffffffffffffffffffffffffffffffffffffff168152602001908152602001600020819055508160008085815260200190815260200160002060008b73ffffffffffffffffffffffffffffffffffffffff1673ffffffffffffffffffffffffffffffffffffffff16815260200190815260200160002060008282546112e59190612e43565b92505081905550505050806112f990613040565b9050611106565b508473ffffffffffffffffffffffffffffffffffffffff168673ffffffffffffffffffffffffffffffffffffffff168273ffffffffffffffffffffffffffffffffffffffff167f4a39dc06d4c0dbc64b70af90fd698a233a518aa5d07e595d983b8c0526c8f7fb8787604051611377929190612a61565b60405180910390a461138d8187878787876119f6565b505050505050565b6000600460009054906101000a900473ffffffffffffffffffffffffffffffffffffffff16905081600460006101000a81548173ffffffffffffffffffffffffffffffffffffffff021916908373ffffffffffffffffffffffffffffffffffffffff1602179055508173ffffffffffffffffffffffffffffffffffffffff168173ffffffffffffffffffffffffffffffffffffffff167f8be0079c531659141344cd1fd0a4f28419497f9722a3daafe3b4186f6b6457e060405160405180910390a35050565b600073ffffffffffffffffffffffffffffffffffffffff168473ffffffffffffffffffffffffffffffffffffffff1614156114cb576040517f08c379a00000000000000000000000000000000000000000000000000000000081526004016114c290612cb5565b60405180910390fd5b60006114d561102d565b90506114f6816000876114e788611bdd565b6114f088611bdd565b876119e0565b8260008086815260200190815260200160002060008773ffffffffffffffffffffffffffffffffffffffff1673ffffffffffffffffffffffffffffffffffffffff16815260200190815260200160002060008282546115559190612e43565b925050819055508473ffffffffffffffffffffffffffffffffffffffff16600073ffffffffffffffffffffffffffffffffffffffff168273ffffffffffffffffffffffffffffffffffffffff167fc3d58168c5ae7397731d063d5bbf3d657854427343f4c083240f7aacaa2d0f6287876040516115d3929190612cf0565b60405180910390a46115ea81600087878787611ca3565b5050505050565b8173ffffffffffffffffffffffffffffffffffffffff168373ffffffffffffffffffffffffffffffffffffffff161415611660576040517f08c379a000000000000000000000000000000000000000000000000000000000815260040161165790612c55565b60405180910390fd5b80600160008573ffffffffffffffffffffffffffffffffffffffff1673ffffffffffffffffffffffffffffffffffffffff16815260200190815260200160002060008473ffffffffffffffffffffffffffffffffffffffff1673ffffffffffffffffffffffffffffffffffffffff16815260200190815260200160002060006101000a81548160ff0219169083151502179055508173ffffffffffffffffffffffffffffffffffffffff168373ffffffffffffffffffffffffffffffffffffffff167f17307eab39ab6107e8899845ad3d59bd9653f200f220920489ca2b5937696c31836040516117519190612a98565b60405180910390a3505050565b600073ffffffffffffffffffffffffffffffffffffffff168473ffffffffffffffffffffffffffffffffffffffff1614156117ce576040517f08c379a00000000000000000000000000000000000000000000000000000000081526004016117c590612bb5565b60405180910390fd5b60006117d861102d565b90506117f88187876117e988611bdd565b6117f288611bdd565b876119e0565b600080600086815260200190815260200160002060008873ffffffffffffffffffffffffffffffffffffffff1673ffffffffffffffffffffffffffffffffffffffff1681526020019081526020016000205490508381101561188f576040517f08c379a000000000000000000000000000000000000000000000000000000000815260040161188690612bf5565b60405180910390fd5b83810360008087815260200190815260200160002060008973ffffffffffffffffffffffffffffffffffffffff1673ffffffffffffffffffffffffffffffffffffffff168152602001908152602001600020819055508360008087815260200190815260200160002060008873ffffffffffffffffffffffffffffffffffffffff1673ffffffffffffffffffffffffffffffffffffffff16815260200190815260200160002060008282546119449190612e43565b925050819055508573ffffffffffffffffffffffffffffffffffffffff168773ffffffffffffffffffffffffffffffffffffffff168373ffffffffffffffffffffffffffffffffffffffff167fc3d58168c5ae7397731d063d5bbf3d657854427343f4c083240f7aacaa2d0f6288886040516119c1929190612cf0565b60405180910390a46119d7828888888888611ca3565b50505050505050565b6119ee868686868686611e8a565b505050505050565b611a158473ffffffffffffffffffffffffffffffffffffffff1661209c565b15611bd5578373ffffffffffffffffffffffffffffffffffffffff1663bc197c8187878686866040518663ffffffff1660e01b8152600401611a5b95949392919061297d565b602060405180830381600087803b158015611a7557600080fd5b505af1925050508015611aa657506040513d601f19601f82011682018060405250810190611aa39190612584565b60015b611b4c57611ab2613116565b806308c379a01415611b0f5750611ac76135b1565b80611ad25750611b11565b806040517f08c379a0000000000000000000000000000000000000000000000000000000008152600401611b069190612ab3565b60405180910390fd5b505b6040517f08c379a0000000000000000000000000000000000000000000000000000000008152600401611b4390612ad5565b60405180910390fd5b63bc197c8160e01b7bffffffffffffffffffffffffffffffffffffffffffffffffffffffff1916817bffffffffffffffffffffffffffffffffffffffffffffffffffffffff191614611bd3576040517f08c379a0000000000000000000000000000000000000000000000000000000008152600401611bca90612af5565b60405180910390fd5b505b505050505050565b60606000600167ffffffffffffffff811115611c22577f4e487b7100000000000000000000000000000000000000000000000000000000600052604160045260246000fd5b604051908082528060200260200182016040528015611c505781602001602082028036833780820191505090505b5090508281600081518110611c8e577f4e487b7100000000000000000000000000000000000000000000000000000000600052603260045260246000fd5b60200260200101818152505080915050919050565b611cc28473ffffffffffffffffffffffffffffffffffffffff1661209c565b15611e82578373ffffffffffffffffffffffffffffffffffffffff1663f23a6e6187878686866040518663ffffffff1660e01b8152600401611d089594939291906129e5565b602060405180830381600087803b158015611d2257600080fd5b505af1925050508015611d5357506040513d601f19601f82011682018060405250810190611d509190612584565b60015b611df957611d5f613116565b806308c379a01415611dbc5750611d746135b1565b80611d7f5750611dbe565b806040517f08c379a0000000000000000000000000000000000000000000000000000000008152600401611db39190612ab3565b60405180910390fd5b505b6040517f08c379a0000000000000000000000000000000000000000000000000000000008152600401611df090612ad5565b60405180910390fd5b63f23a6e6160e01b7bffffffffffffffffffffffffffffffffffffffffffffffffffffffff1916817bffffffffffffffffffffffffffffffffffffffffffffffffffffffff191614611e80576040517f08c379a0000000000000000000000000000000000000000000000000000000008152600401611e7790612af5565b60405180910390fd5b505b505050505050565b611e988686868686866120bf565b600073ffffffffffffffffffffffffffffffffffffffff168573ffffffffffffffffffffffffffffffffffffffff161415611f965760005b8351811015611f9457828181518110611f12577f4e487b7100000000000000000000000000000000000000000000000000000000600052603260045260246000fd5b602002602001015160036000868481518110611f57577f4e487b7100000000000000000000000000000000000000000000000000000000600052603260045260246000fd5b602002602001015181526020019081526020016000206000828254611f7c9190612e43565b9250508190555080611f8d90613040565b9050611ed0565b505b600073ffffffffffffffffffffffffffffffffffffffff168473ffffffffffffffffffffffffffffffffffffffff1614156120945760005b835181101561209257828181518110612010577f4e487b7100000000000000000000000000000000000000000000000000000000600052603260045260246000fd5b602002602001015160036000868481518110612055577f4e487b7100000000000000000000000000000000000000000000000000000000600052603260045260246000fd5b60200260200101518152602001908152602001600020600082825461207a9190612ef3565b925050819055508061208b90613040565b9050611fce565b505b505050505050565b6000808273ffffffffffffffffffffffffffffffffffffffff163b119050919050565b505050505050565b60006120da6120d584612d3e565b612d19565b905080838252602082019050828560208602820111156120f957600080fd5b60005b85811015612129578161210f88826121dd565b8452602084019350602083019250506001810190506120fc565b5050509392505050565b600061214661214184612d6a565b612d19565b9050808382526020820190508285602086028201111561216557600080fd5b60005b85811015612195578161217b88826122af565b845260208401935060208301925050600181019050612168565b5050509392505050565b60006121b26121ad84612d96565b612d19565b9050828152602081018484840111156121ca57600080fd5b6121d5848285612f9b565b509392505050565b6000813590506121ec81613647565b92915050565b600082601f83011261220357600080fd5b81356122138482602086016120c7565b91505092915050565b600082601f83011261222d57600080fd5b813561223d848260208601612133565b91505092915050565b6000813590506122558161365e565b92915050565b60008135905061226a81613675565b92915050565b60008151905061227f81613675565b92915050565b600082601f83011261229657600080fd5b81356122a684826020860161219f565b91505092915050565b6000813590506122be8161368c565b92915050565b6000602082840312156122d657600080fd5b60006122e4848285016121dd565b91505092915050565b6000806040838503121561230057600080fd5b600061230e858286016121dd565b925050602061231f858286016121dd565b9150509250929050565b600080600080600060a0868803121561234157600080fd5b600061234f888289016121dd565b9550506020612360888289016121dd565b945050604086013567ffffffffffffffff81111561237d57600080fd5b6123898882890161221c565b935050606086013567ffffffffffffffff8111156123a657600080fd5b6123b28882890161221c565b925050608086013567ffffffffffffffff8111156123cf57600080fd5b6123db88828901612285565b9150509295509295909350565b600080600080600060a0868803121561240057600080fd5b600061240e888289016121dd565b955050602061241f888289016121dd565b9450506040612430888289016122af565b9350506060612441888289016122af565b925050608086013567ffffffffffffffff81111561245e57600080fd5b61246a88828901612285565b9150509295509295909350565b6000806040838503121561248a57600080fd5b6000612498858286016121dd565b92505060206124a985828601612246565b9150509250929050565b600080604083850312156124c657600080fd5b60006124d4858286016121dd565b92505060206124e5858286016122af565b9150509250929050565b6000806040838503121561250257600080fd5b600083013567ffffffffffffffff81111561251c57600080fd5b612528858286016121f2565b925050602083013567ffffffffffffffff81111561254557600080fd5b6125518582860161221c565b9150509250929050565b60006020828403121561256d57600080fd5b600061257b8482850161225b565b91505092915050565b60006020828403121561259657600080fd5b60006125a484828501612270565b91505092915050565b6000602082840312156125bf57600080fd5b60006125cd848285016122af565b91505092915050565b60006125e2838361292f565b60208301905092915050565b6125f781612f27565b82525050565b600061260882612dd7565b6126128185612e05565b935061261d83612dc7565b8060005b8381101561264e57815161263588826125d6565b975061264083612df8565b925050600181019050612621565b5085935050505092915050565b61266481612f39565b82525050565b600061267582612de2565b61267f8185612e16565b935061268f818560208601612faa565b61269881613138565b840191505092915050565b60006126ae82612ded565b6126b88185612e32565b93506126c8818560208601612faa565b6126d181613138565b840191505092915050565b60006126e9603483612e32565b91506126f482613156565b604082019050919050565b600061270c602883612e32565b9150612717826131a5565b604082019050919050565b600061272f602b83612e32565b915061273a826131f4565b604082019050919050565b6000612752602683612e32565b915061275d82613243565b604082019050919050565b6000612775602983612e32565b915061278082613292565b604082019050919050565b6000612798601283612e32565b91506127a3826132e1565b602082019050919050565b60006127bb601283612e32565b91506127c68261330a565b602082019050919050565b60006127de602583612e32565b91506127e982613333565b604082019050919050565b6000612801603283612e32565b915061280c82613382565b604082019050919050565b6000612824602a83612e32565b915061282f826133d1565b604082019050919050565b6000612847601783612e32565b915061285282613420565b602082019050919050565b600061286a602083612e32565b915061287582613449565b602082019050919050565b600061288d600083612e27565b915061289882613472565b600082019050919050565b60006128b0602983612e32565b91506128bb82613475565b604082019050919050565b60006128d3602983612e32565b91506128de826134c4565b604082019050919050565b60006128f6602883612e32565b915061290182613513565b604082019050919050565b6000612919602183612e32565b915061292482613562565b604082019050919050565b61293881612f91565b82525050565b61294781612f91565b82525050565b600061295882612880565b9150819050919050565b600060208201905061297760008301846125ee565b92915050565b600060a08201905061299260008301886125ee565b61299f60208301876125ee565b81810360408301526129b181866125fd565b905081810360608301526129c581856125fd565b905081810360808301526129d9818461266a565b90509695505050505050565b600060a0820190506129fa60008301886125ee565b612a0760208301876125ee565b612a14604083018661293e565b612a21606083018561293e565b8181036080830152612a33818461266a565b90509695505050505050565b60006020820190508181036000830152612a5981846125fd565b905092915050565b60006040820190508181036000830152612a7b81856125fd565b90508181036020830152612a8f81846125fd565b90509392505050565b6000602082019050612aad600083018461265b565b92915050565b60006020820190508181036000830152612acd81846126a3565b905092915050565b60006020820190508181036000830152612aee816126dc565b9050919050565b60006020820190508181036000830152612b0e816126ff565b9050919050565b60006020820190508181036000830152612b2e81612722565b9050919050565b60006020820190508181036000830152612b4e81612745565b9050919050565b60006020820190508181036000830152612b6e81612768565b9050919050565b60006020820190508181036000830152612b8e8161278b565b9050919050565b60006020820190508181036000830152612bae816127ae565b9050919050565b60006020820190508181036000830152612bce816127d1565b9050919050565b60006020820190508181036000830152612bee816127f4565b9050919050565b60006020820190508181036000830152612c0e81612817565b9050919050565b60006020820190508181036000830152612c2e8161283a565b9050919050565b60006020820190508181036000830152612c4e8161285d565b9050919050565b60006020820190508181036000830152612c6e816128a3565b9050919050565b60006020820190508181036000830152612c8e816128c6565b9050919050565b60006020820190508181036000830152612cae816128e9565b9050919050565b60006020820190508181036000830152612cce8161290c565b9050919050565b6000602082019050612cea600083018461293e565b92915050565b6000604082019050612d05600083018561293e565b612d12602083018461293e565b9392505050565b6000612d23612d34565b9050612d2f828261300f565b919050565b6000604051905090565b600067ffffffffffffffff821115612d5957612d586130e7565b5b602082029050602081019050919050565b600067ffffffffffffffff821115612d8557612d846130e7565b5b602082029050602081019050919050565b600067ffffffffffffffff821115612db157612db06130e7565b5b612dba82613138565b9050602081019050919050565b6000819050602082019050919050565b600081519050919050565b600081519050919050565b600081519050919050565b6000602082019050919050565b600082825260208201905092915050565b600082825260208201905092915050565b600081905092915050565b600082825260208201905092915050565b6000612e4e82612f91565b9150612e5983612f91565b9250827fffffffffffffffffffffffffffffffffffffffffffffffffffffffffffffffff03821115612e8e57612e8d613089565b5b828201905092915050565b6000612ea482612f91565b9150612eaf83612f91565b9250817fffffffffffffffffffffffffffffffffffffffffffffffffffffffffffffffff0483118215151615612ee857612ee7613089565b5b828202905092915050565b6000612efe82612f91565b9150612f0983612f91565b925082821015612f1c57612f1b613089565b5b828203905092915050565b6000612f3282612f71565b9050919050565b60008115159050919050565b60007fffffffff0000000000000000000000000000000000000000000000000000000082169050919050565b600073ffffffffffffffffffffffffffffffffffffffff82169050919050565b6000819050919050565b82818337600083830152505050565b60005b83811015612fc8578082015181840152602081019050612fad565b83811115612fd7576000848401525b50505050565b60006002820490506001821680612ff557607f821691505b60208210811415613009576130086130b8565b5b50919050565b61301882613138565b810181811067ffffffffffffffff82111715613037576130366130e7565b5b80604052505050565b600061304b82612f91565b91507fffffffffffffffffffffffffffffffffffffffffffffffffffffffffffffffff82141561307e5761307d613089565b5b600182019050919050565b7f4e487b7100000000000000000000000000000000000000000000000000000000600052601160045260246000fd5b7f4e487b7100000000000000000000000000000000000000000000000000000000600052602260045260246000fd5b7f4e487b7100000000000000000000000000000000000000000000000000000000600052604160045260246000fd5b600060033d11156131355760046000803e613132600051613149565b90505b90565b6000601f19601f8301169050919050565b60008160e01c9050919050565b7f455243313135353a207472616e7366657220746f206e6f6e204552433131353560008201527f526563656976657220696d706c656d656e746572000000000000000000000000602082015250565b7f455243313135353a204552433131353552656365697665722072656a6563746560008201527f6420746f6b656e73000000000000000000000000000000000000000000000000602082015250565b7f455243313135353a2062616c616e636520717565727920666f7220746865207a60008201527f65726f2061646472657373000000000000000000000000000000000000000000602082015250565b7f4f776e61626c653a206e6577206f776e657220697320746865207a65726f206160008201527f6464726573730000000000000000000000000000000000000000000000000000602082015250565b7f455243313135353a2063616c6c6572206973206e6f74206f776e6572206e6f7260008201527f20617070726f7665640000000000000000000000000000000000000000000000602082015250565b7f546f74616c20537570706c79203d203235300000000000000000000000000000600082015250565b7f4c696d69742032205065722057616c6c65740000000000000000000000000000600082015250565b7f455243313135353a207472616e7366657220746f20746865207a65726f20616460008201527f6472657373000000000000000000000000000000000000000000000000000000602082015250565b7f455243313135353a207472616e736665722063616c6c6572206973206e6f742060008201527f6f776e6572206e6f7220617070726f7665640000000000000000000000000000602082015250565b7f455243313135353a20696e73756666696369656e742062616c616e636520666f60008201527f72207472616e7366657200000000000000000000000000000000000000000000602082015250565b7f496e737566666963656e74204d696e74696e6720466565000000000000000000600082015250565b7f4f776e61626c653a2063616c6c6572206973206e6f7420746865206f776e6572600082015250565b50565b7f455243313135353a2073657474696e6720617070726f76616c2073746174757360008201527f20666f722073656c660000000000000000000000000000000000000000000000602082015250565b7f455243313135353a206163636f756e747320616e6420696473206c656e67746860008201527f206d69736d617463680000000000000000000000000000000000000000000000602082015250565b7f455243313135353a2069647320616e6420616d6f756e7473206c656e6774682060008201527f6d69736d61746368000000000000000000000000000000000000000000000000602082015250565b7f455243313135353a206d696e7420746f20746865207a65726f2061646472657360008201527f7300000000000000000000000000000000000000000000000000000000000000602082015250565b600060443d10156135c157613644565b6135c9612d34565b60043d036004823e80513d602482011167ffffffffffffffff821117156135f1575050613644565b808201805167ffffffffffffffff81111561360f5750505050613644565b80602083010160043d03850181111561362c575050505050613644565b61363b8260200185018661300f565b82955050505050505b90565b61365081612f27565b811461365b57600080fd5b50565b61366781612f39565b811461367257600080fd5b50565b61367e81612f45565b811461368957600080fd5b50565b61369581612f91565b81146136a057600080fd5b5056fea2646970667358221220c591dc813a4303f1c0d9c492ef3df78eb9b4478c905a337e0898bd4408cdfdb964736f6c63430008040033697066733a2f2f516d58455950794475397759426236686639684e78456f55716f5755705448547977706752776f6247484e79674d",
  "linkReferences": {},
  "deployedLinkReferences": {}
}